:100000000C94D3030C94FB030C94FB030C94FB03A0
:100010000C94FB030C94FB030C94FB030C94FB0368
:100020000C94FB030C94FB030C94FB030C94421301
:100030000C94FB030C94FB030C94FB030C94FB0348
:100040000C94F7190C94FB030C94FB030C94FB0326
:100050000C94FB030C94FB030C94FB030C94FB0328
:100060000C94FB030C94FB034024FFFFFFFFFFFFF6
:10007000FFFF8000000000000001B0180000000039
:100080000001B838003FB45DDDDDBC7801BFA4518C
:100090001515BEFB01B0A4511515BFFB61B024516D
:1000A0001515B7D871B024511515B39B71B02451F3
:1000B0001D1DB11B79BC34599199B01B7DB81451E9
:1000C0001115B01A2FB014511115B010A7B0155159
:1000D0001115B00483B015511115B023D3BF95513C
:1000E0001115B017E1BFB29DD1D5B00FFC000000D3
:1000F0000005B78FF1FFFFFFFFF5B03FFC000000E8
:100100000005B00FF00020000495B017E800408013
:1001100002A5B023C40041040005B00520008208F8
:1001200026B5B0008001C71C7005B0010001C71CD6
:1001300072A5B0008001C71C7495B00100E00000FA
:100140000001B00081E03285D115B00101E0390530
:100150005109B00081203119DDC9B0010020000033
:100160000001B000802011D59CDDB0010020395580
:10017000C889B0008070119D9D89B00100F8000011
:100180000001FFFFFFFFFFFFFFFF00596F752077A2
:100190006F6E21203A2900596F75206C6F73742E91
:1001A000203A2800080770F8A8F888F87008078037
:1001B000C0E0A080800005077F4141417F3E5B4F4A
:1001C0005B3E3E6B4F6B3E183C783C18183C7E3CC7
:1001D000181C577D571C1C5E7F5E1C007E43437EAF
:1001E000007E73737E007E7F7F7E7F4141417F3042
:1001F000483A060E06297929067F4141417F607001
:100200003F02042A1C361C2A7F3E1C080000081CE2
:100210003E7F14227F22143C3C3C7EFF18423C81EE
:100220007E3E6375633E3E616B633E3E636B6B3E39
:1002300004027F020410207F201008082A1C0808EE
:100240001C2A0808143E554122637569756310180D
:100250001C1810040C1C0C04000000000000005FBF
:1002600000000007000700147F147F14042A7F2A6F
:100270001023130864623649562050000807030013
:10028000001C2241000041221C002A1C3E1C2A089E
:10029000083E080800E06000000808080808006040
:1002A00060000060100804033E5149453E00427F53
:1002B000400062514949462141494D331814127F8B
:1002C0001027454545393C4A494930412111090724
:1002D0003649494936064949291E000024000000D4
:1002E0008064000008142241001414141414004106
:1002F00022140802015909063E415D594E7C121133
:10030000127C7F494949363E414141227F41412289
:100310001C7F494949417F090909013E4141513248
:100320007F0808087F00417F41002041413F017F55
:10033000081422417F404040407F020C027F7F0230
:1003400004087F3E4141413E7F090909063E416163
:1003500041BE7F09192946264949493201017F01D9
:10036000013F4040403F1F2040201F3F4038403F5A
:10037000631408146303047804036151494543007E
:100380007F41410003040810600041417F000402E6
:1003900001020480808080800003070800205454FC
:1003A00078407F284444383844444428384444281A
:1003B0007F3854545418087E09090218A4A49C7864
:1003C0007F0804047800447D4000006080847D7FC5
:1003D0001010284400417F40007C047804787C0899
:1003E0000404783844444438FC182424181824247D
:1003F00018FC7C080404080854545420043F444466
:10040000203C4040207C1C2040201C3C4020403CA4
:1004100044281028444C9090907C4464544C4400F0
:100420000836410000007F00000041360800180433
:1004300008100C7F4141417F03053F213F12081204
:100440000A100A0E1C0E0C1E0C141A14161F161E6F
:10045000131E1E1B1E1E1F1E3F213F3A2F3A173D23
:10046000173F213F181F02040A041F0E04040E1F29
:100470000A1F0A0E0E1F04110E2E252E2F2A2E26BD
:100480002929021F02081F08150E04040E150E1557
:10049000151B151B040604040C04000000001700C3
:1004A0000300031F0A1F16371A1904130A153A000E
:1004B0000300000E11110E000A040A040E0400309D
:1004C000000404040010001804031F111F121F1061
:1004D0001D151711151F07041F17151D1F151D01C9
:1004E000011F1F151F17151F000A00003200040A04
:1004F000110A0A0A110A040115020E11171E051E1F
:100500001F150A0E110A1F110E1F15111F05010ECE
:10051000111D1F041F111F1108100F1F041B1F1096
:10052000101F061F1E040F0E110E1F09060E112E9E
:100530001F051A121509011F011F101F0F180F1F89
:100540000C1F1B041B031C03191513001F110304AC
:1005500018111F000201022020200001020C121EAF
:100560001F120C0C12120C121F0C1A14041E05245C
:100570002A1E1F021C141D1020201D1F0814111FED
:10058000101E041E1E021C0C120C3E0A040C123E0D
:100590001E040214160A020F120E101E0E100E1E5A
:1005A000081E120C1226281E322A26041E21001FA5
:1005B00000211E040102013F213F450068010000A7
:1005C00005006801380100000500380168010000DD
:1005D000F6E8DBCFC3B8AEA49B928A827B746E68C8
:1005E000625C57524E4945413E3A3734312E2C29F0
:1005F000272523211F1D1C1A191716151413121154
:10060000100F0E0D0C0B0A090807060F0613060142
:1006100001F7030101FF030A4E6F20534420636179
:100620007264206F720A6E6F204C4F414445522E07
:100630004845580A0A153A45786974001D20466CE9
:10064000617368696E670A20206C6F616465722E41
:100650002E2E0A0A444F4E2754205455524E204FF6
:10066000464621006D560A0A504C454153450A54EE
:1006700055524E204F4646004C4F5720424154544D
:100680004552590A00177361766500166261636B03
:10069000001574797065000A0A0A153A6F6B617962
:1006A00020163A6564697400596F7520656E74652B
:1006B0007265640A00540A03E181867F3E186D83E7
:1006C0000F0F0E0183866033186DC3198F1803C393
:1006D0008E6033186DE330CF1803C39E603630CD83
:1006E000E360CF3006C79E7E3E30CDB360CF300C86
:1006F000C6F6603330D9B660CF33CFCCF66061B088
:10070000DB1E60CF30D86CE6C061B0DB1E618F1994
:10071000986CC6C063B19B0E330F0FB078C6FF7ED6
:100720001F1B061E0F1753440016137800161314D0
:100730000015102000152010000000050089300869
:1007400002380249786814000000000000240027E5
:10075000002A0000000000250028002B00000000F7
:1007600000230026002900040404040404040402F5
:10077000020202020203030303030301020408103E
:10078000204080010204081020010204081020000B
:100790000000070002010000030406000000000042
:1007A00000000000A00511241FBECFEFD8E0DEBF7F
:1007B000CDBF11E0A0E0B1E0E2E9FEE302C00590A8
:1007C0000D92AA32B107D9F715E0AAE2B1E001C053
:1007D0001D92A338B107E1F717E0C6EAD7E004C0DD
:1007E0002297FE010E940C1FC43AD107C9F70E944C
:1007F0008A1B0C94471F0C940000A0E0B0E0E3E0DB
:10080000F4E00C94181FEC01A880B980CA80DB804A
:10081000A114B104C104D10441F484E2A82E89EDED
:10082000B82E8BE5C82E87E0D82EC601B5012DE184
:1008300033EF41E050E00E94EF1E27EA31E440E050
:1008400050E00E94871E7B018C01C601B5012DE19D
:1008500033EF41E050E00E94EF1ECA01B9012CEED7
:1008600034EF4FEF5FEF0E94871E6E0D7F1D801FDC
:10087000911F97FF04C0615070408040904868838A
:1008800079838A839B839B01AC015F77B901CA019D
:10089000CDB7DEB7EAE00C94341F0E94FD03089543
:1008A0008FE091E00E94FD03089560930F01709323
:1008B000100180931101909312010895CF93DF935B
:1008C000282F30E070E0AB0141505040F90193E037
:1008D000EE0FFF1F9A95E1F7E40FF51FEE0FFF1FD4
:1008E000EE0FFF1FED54FE4F8081811181E0982FA4
:1008F000EB012196F901B3E0EE0FFF1FBA95E1F786
:10090000EC0FFD1FEE0FFF1FEE0FFF1FED54FE4F0C
:10091000808181119F5FD9011197FD0183E0EE0F66
:10092000FF1F8A95E1F7E40FF51FEE0FFF1FEE0F93
:10093000FF1FED54FE4F808181119F5FFD0183E019
:10094000EE0FFF1F8A95E1F7E60FF71FEE0FFF1F6F
:10095000EE0FFF1FED54FE4F808181119F5FF3E08A
:10096000AA0FBB1FFA95E1F7AC0FBD1FAA0FBB1F63
:10097000AA0FBB1FAD54BE4F8C9181119F5FD9014F
:100980001196FD0133E0EE0FFF1F3A95E1F7E40FFA
:10099000F51FEE0FFF1FEE0FFF1FED54FE4F80817E
:1009A00081119F5FFD0183E0EE0FFF1F8A95E1F744
:1009B000E60FF71FEE0FFF1FEE0FFF1FED54FE4F68
:1009C000808181119F5F63E0AA0FBB1F6A95E1F7E9
:1009D000AC0FBD1FAA0FBB1FAA0FBB1FAD54BE4F4C
:1009E0008C9181119F5F892FDF91CF910895CF92D4
:1009F000DF92FF920F931F93DF93CF930F92CDB7A8
:100A0000DEB701E010E018C0F6018081882341F4D0
:100A10008F2D692F99830E945E04F601818399814D
:100A20009F5F24E030E0C20ED31E973069F70F5F5E
:100A30001F4F0D30110569F0F02E680125E0CC0C38
:100A4000DD1C2A95E1F787EB91E0C80ED91E91E0F5
:100A5000DBCF0F90CF91DF911F910F91FF90DF902F
:100A6000CF900895DF92EF92FF920F931F93CF9351
:100A7000DF93082FE62EC1E0D0E0002309F458C030
:100A8000EE2009F455C00D3008F052C086E08E15F6
:100A900008F44EC0202F30E053E0220F331F5A9548
:100AA000E1F72E0D311DD901AA0FBB1FAA0FBB1FE5
:100AB000AB54BE4F8D919C911197892BC9F5F901CB
:100AC000EE0FFF1FEE0FFF1FED54FE4F80818823B6
:100AD00079F5CD93DC938091B0018F5F8093B00165
:100AE0008181882329F5102F1F5FFE2CF394812F1D
:100AF0006F2D0E943205812F6E2D0E943205DE2C53
:100B0000DA94812F6D2D0E943205802F6F2D0E9467
:100B10003205802F6D2D0E9432050150802F6F2DE0
:100B20000E943205802F6E2D0E943205ED2CA5CF3C
:100B3000DF91CF911F910F91FF90EF90DF9008957B
:100B400010927B0110927A0185E291E090937901F5
:100B500080937801809113018E5F809379032091B7
:100B600014012E5F20937A0330E0C901880F991F8A
:100B7000820F931F909581959F4F885E80937B0392
:100B800008958AE291E00E94F31788E791E066EB0E
:100B900071E00E94500E8AE291E06AE871E048E656
:100BA00050E00E94901688E791E068E374E00E94AC
:100BB000500E8AE291E00E948C151092420188E763
:100BC00091E068E374E00E94500E10927603109258
:100BD00075032FEE31E081E090E00FC010821182AA
:100BE000138212823496E217F307C1F701969F0130
:100BF000205E3F4F8D30910549F0FC0175E0EE0F0E
:100C0000FF1F7A95E1F7E954FE4FE8CF1092730386
:100C1000109274031092B0011092B10181E08093A0
:100C2000B2011092780308950F93209179030091F7
:100C30007A0360917303269F602D11246C5E4091AE
:100C40007B03415080917403089F802D1124480F2D
:100C50002E5F0E5F88E791E00E942C0B0F910895A4
:100C60008F929F92AF92BF92CF92DF92EF920F93AB
:100C70001F93CF93DF9384E391E064E00E94BE0969
:100C8000882319F081E08093770384E391E064E0A6
:100C90000E94C809882311F01092770388E791E039
:100CA00066EB71E00E94500E80917503909176037F
:100CB000029741F488E791E06091790340917A03CB
:100CC00021E02FC080917703882321F18091740364
:100CD000E0917303F0E0319613E0EE0FFF1F1A95D9
:100CE000E1F7E80FF11DEE0FFF1FEE0FFF1FE754B6
:100CF000FE4F80819181892B69F488E791E06091B2
:100D0000790340917A0324EA31E000E0EE240E9466
:100D1000900D0AC088E791E06091790340917A03D1
:100D200022E001E00E94630E88E791E068E374E04E
:100D30000E94500EAA24BB2471C08A819B81892BFA
:100D4000B9F4609179036A9D602D11246A5E8091E7
:100D50007B038F5F40917A034C9D402D1124480FF7
:100D600088E791E020911301009114010E94F60A96
:100D70008A819B810297B9F4609179036A9D602D05
:100D800011246A5E80917B038F5F40917A034C9DB2
:100D9000402D1124480F88E791E02DEA31E000E072
:100DA000EE240E94900D8A819B81019749F58881EC
:100DB0006091790390917B0340917A03882369F0D5
:100DC0006A9D602D11246A5E9F5F4C9D402D112409
:100DD000490F88E791E02AE210C06A9D602D112436
:100DE0006A5E9F5F4C9D402D1124490FE981F0E020
:100DF000E95EFE4F88E791E0208101E00E94630EEA
:100E00000894C11CD11C249686E0C816D10409F0B0
:100E100094CF8CE08816910481F054014501089428
:100E2000811C911CE401A5E0CC0FDD1FAA95E1F720
:100E3000C954DE4FCC24DD2480CF40917B03415048
:100E40002091790386E0289F900111242F5F3F4F66
:100E5000220F331F00917A0383E0089F8001112441
:100E60000F5F1F4F000F111F88E791E064E10E94A0
:100E70002C0BDF91CF911F910F91EF90DF90CF90CE
:100E8000BF90AF909F908F900895FF920F931F9304
:100E900000E0FF24F39461E070E080E090E02CE05B
:100EA00030E040E050E00E94441D162F61E070E009
:100EB00080E090E026E030E040E050E00E94441DF9
:100EC000A12FB0E070E0FD0133E0EE0FFF1F3A9577
:100ED000E1F7E60FF71FEE0FFF1FEE0FFF1FED54B8
:100EE000FE4F80818823B9F68091730390E00196CC
:100EF000A817B90739F48091740390E00196681738
:100F0000790779F093E0AA0FBB1F9A95E1F7A60F36
:100F1000B71FAA0FBB1FAA0FBB1FAD54BE4FFC9239
:100F20000F5F0C3008F4B7CF1F910F91FF90089519
:100F300084E391E064E00E94BE098823F1F081E03F
:100F40008093780380917403E0917303F0E031960D
:100F500043E0EE0FFF1F4A95E1F7E80FF11DEE0F9A
:100F6000FF1FEE0FFF1FE754FE4F80819181892BF9
:100F700021F48FE491E00E94721384E391E064E035
:100F80000E94C809882309F4B0C080917803813099
:100F900009F0ABC08091B201882331F01092B20108
:100FA0000E9445070E94F70480917303A82FB0E0C8
:100FB00011968091740390E0019623E0AA0FBB1F65
:100FC0002A95E1F7A80FB91FFD01EE0FFF1FEE0FE5
:100FD000FF1FEB54FE4F80819181892B09F085C062
:100FE000AA0FBB1FAA0FBB1FAD54BE4F8C91882305
:100FF00099F14FEE51E021E030E061E070E011C086
:101000008081882311F0738362833496E417F50797
:10101000B9F72F5F3F4FAF01405E5F4F2D30310575
:1010200049F0F901A5E0EE0FFF1FAA95E1F7E95499
:10103000FE4FE6CF82E090E09093760380937503B5
:101040008AE291E067E971E048E20E94BF138FE411
:1010500091E00E946C1349C08FE491E00E946613F6
:1010600020917303A22FB0E0119660917403862F34
:1010700090E00196E3E0AA0FBB1FEA95E1F7A80F05
:10108000B91FFD01EE0FFF1FEE0FFF1FED54FE4FC6
:101090008181882331F46F5F822F8F5F0E94320538
:1010A0000FC0AA0FBB1FAA0FBB1FAB54BE4F81E0DE
:1010B00090E08D939C938091B0018F5F8093B001FD
:1010C0008091B0018C3389F481E090E090937603B5
:1010D000809375038AE291E06BE871E048E20E9438
:1010E000BF138FE491E00E94661384E391E065E012
:1010F0000E94BE098823C9F18091B201882331F092
:101100001092B2010E9445070E94F7048091730378
:10111000E82FF0E031968091740390E0019653E05F
:10112000EE0FFF1F5A95E1F7E80FF91FEE0FFF1FB3
:10113000EE0FFF1FEB54FE4F80819181009741F429
:1011400082E090E0918380838091B1018F5F07C03E
:10115000029759F4118210828091B10181508093DD
:10116000B1018FE491E00E94661384E391E066E0B0
:101170000E94BE09882311F00E94C10584E391E01A
:1011800061E00E94BE09882369F08091740388237E
:1011900011F0815001C085E0809374038FE491E0E9
:1011A0000E94721384E391E063E00E94BE098823E9
:1011B00071F080917403853020F48F5F8093740305
:1011C00002C0109274038FE491E00E94721384E3D2
:1011D00091E060E00E94BE09882369F0809173036A
:1011E000882311F0815001C08BE0809373038FE45A
:1011F00091E00E94721384E391E062E00E94BE09D4
:10120000882371F0809173038B3020F48F5F80937B
:10121000730302C0109273038FE491E00E94721373
:1012200008958AE291E00E94D715882309F45FC0EF
:1012300088E791E066EB71E00E94500E88E791E04C
:1012400060E071E00E94D61C88E791E068E374E0FA
:101250000E94500E88E791E06091B1014AE050E0B1
:101260000E94C41C88E791E066E071E00E94D61CF1
:1012700088E791E06CE04AE050E00E94C41C88E7F7
:1012800091E068E374E00E94500E809175039091A4
:101290007603892B31F40E9498070E9430060E9441
:1012A00014068091750390917603019769F40E946A
:1012B00030060E94140684E391E066E00E94BE09B5
:1012C000882311F00E94C1058091750390917603E7
:1012D000029769F40E9430060E94140684E391E0AC
:1012E00066E00E94BE09882311F00E94C10508959E
:1012F000882319F48CB5806202C08CB58F7D8CBDBB
:1013000008959CB5937F982B9CBD08952CB5382FDC
:1013100033702C7F322B3CBD2DB590E09595879591
:101320009595879581702E7F822B8DBD08958AE0DB
:1013300061E00E9450198AE061E00E9411198CB5A9
:1013400080618CBD8CB580648CBD8DE061E00E94B5
:1013500011198BE061E00E9411190895FC0188E0E9
:10136000808389E0818387E0828386E0838384E0D1
:10137000848382E0858381E18683089520E0FC01F7
:10138000E60FF11D8781813009F421E0822F089555
:1013900020E0FC01E60FF11D87818F3F09F421E079
:1013A000822F08950F931F93CF93DF93EC0110E0EA
:1013B0000FEF888162E00E94111988810E94A419B0
:1013C0002F81892B19F42F5F2F8307C0222349F027
:1013D0002F3F11F41F8201C00F83888160E00E94BB
:1013E00011191F5F2196173021F7DF91CF911F91BF
:1013F0000F910895FC01742F643508F05DC047FD1E
:101400005BC040330CF058C0878D823019F5842FB3
:10141000859585958595992787FD9095462F552724
:1014200047FD509524E530E0829FF001839FF00D49
:10143000929FF00D1124E40FF51FE458FC4F8081BA
:1014400090E0272F277002C0959587952A95E2F79F
:1014500080958170972F959595959595462F552751
:1014600047FD5095272F27708823A1F4E4E59E02BD
:10147000F0011124E40FF51FE458FC4F81E090E0E7
:1014800002C0880F991F2A95E2F7809520812823B2
:1014900020830895E4E59E02F0011124E40FF51F76
:1014A000E458FC4F81E090E002C0880F991F2A9514
:1014B000E2F72081282B20830895FC01678F60A329
:1014C0000895FC01678F40A30895AF92BF92CF9219
:1014D000DF92EF92FF920F931F93CF93DF93EC0174
:1014E000162FF42EE22EAA24402F552747FD5095A3
:1014F0008F2D992787FD9095481B590B57FF03C0E7
:10150000509541955F4F2E2D332727FD3095812F24
:10151000992787FD9095281B390B37FF03C030951D
:1015200021953F4F2417350744F4AA24A3948F2D07
:10153000F12E182F802F0E2DE82EE11634F48E2D6B
:10154000E12E182F802F0F2DF82EDE2CD11A202FF0
:10155000332727FD30958F2D992787FD9095281BE0
:10156000390B37FF03C0309521953F4FB22EF0164F
:101570001CF0CC24CA9402C0CC24C3948D2DD7FC7B
:101580008F5F082F059511C0AA2021F0CE016F2D85
:10159000412F03C0CE01612F4F2D0E94FA090B1974
:1015A00007FF02C0FC0C0D0D1F5FE1166CF7DF9109
:1015B000CF911F910F91FF90EF90DF90CF90BF9050
:1015C000AF9008950F93042F322F262F2150230F11
:1015D0000E94650A0F9108950F93362F042F015032
:1015E000020F232F0E94650A0F9108959F92AF92D8
:1015F000BF92CF92DF92EF92FF920F931F93CF9300
:10160000DF936C01B62E942EA02EC0E0D0E0E62E23
:10161000FF24E7FCF094022F112707FD10950E0D13
:101620001F1D06C0C601492D2A2D0E94EC0A2196D5
:101630006B2D6C0FCE018E0D9F1D8017910794F3BB
:10164000DF91CF911F910F91FF90EF90DF90CF909E
:10165000BF90AF909F900895CF92DF92EF92FF924C
:101660000F931F937C01162FD42EC22E0E94E20AE4
:101670004D2D4150400FC701612F2C2D0E94E20AD1
:10168000C701612F4D2D202F0E94EC0A11501C0D17
:10169000C701612F4D2D202F0E94EC0A1F910F9141
:1016A000FF90EF90DF90CF9008952F923F925F923E
:1016B0006F927F928F929F92AF92BF92CF92DF9262
:1016C000EF92FF920F931F93DF93CF9300D000D040
:1016D00000D0CDB7DEB79E838D83C62ED42EEE24E8
:1016E000E394E21A8EEF289F502C1124842E8A94C2
:1016F000962E9A94A42EA394B62EB394F22E66241A
:1017000023E0722E10E0C801847090709A83898360
:10171000F801E270F070FC83EB8398E0292E312C05
:10172000202231220170107054C0E7FC04C0FA94EA
:10173000F2E05F0EE50C639489819A81892B71F048
:101740004F2D4D0D8D819E816B2D0E94FA096F2DBD
:101750006C0D8D819E814A2D0E94FA09EB81FC81DE
:10176000EF2B71F04D2D4F198D819E816B2D0E94B5
:10177000FA096F2D6C0D8D819E81482D0E94FA090A
:101780002114310471F06C2D6F198D819E814A2DC9
:101790000E94FA094F2D4D0D8D819E81692D0E9469
:1017A000FA090115110571F06C2D6F198D819E815B
:1017B000482D0E94FA094D2D4F198D819E81692D6A
:1017C0000E94FA09E70CF2E07F0E8A949A94A3949F
:1017D000B3946F140CF4A9CF26960FB6F894DEBF1D
:1017E0000FBECDBFCF91DF911F910F91FF90EF9072
:1017F000DF90CF90BF90AF909F908F907F906F9031
:101800005F903F902F9008954F925F926F927F92DA
:101810008F929F92AF92BF92CF92DF92EF92FF9200
:101820000F931F93CF93DF93EC01A62E742E9E2D62
:10183000FF24F394F21A8EEF289F802C1124B42EEB
:10184000BA9453E0C52ECE0CE22EDD2443E0942E54
:1018500010E031E0432E512C40225122692E639436
:101860000270107034C0F7FC04C0EA9482E0880E65
:10187000F80CD3944114510489F06D2D6A0D472D55
:101880004E192E2D220F260DCE010E94EC0A6E2D30
:101890006A0DCE014B2D2C2D0E94EC0A011511056D
:1018A00089F06A2D6D19472D4E192E2D220F260D08
:1018B000CE010E94EC0A6A2D6E19CE014B2D2C2D03
:1018C0000E94EC0AF90C82E0980EBA94C80EDE145D
:1018D00054F2DF91CF911F910F91FF90EF90DF9025
:1018E000CF90BF90AF909F908F907F906F905F90C0
:1018F0004F9008957F928F929F92AF92BF92CF9216
:10190000DF92EF92FF920F931F936C01962EA42EFD
:10191000F22E7E2C760E1EEFE19E102D1124812ECC
:10192000820E672D282D0E94E20AB02EBA0CBA94BE
:10193000C601672D4B2D282D0E94E20AAE0C100F18
:10194000C601692D4A2D212F0E94EC0AF90CFA9448
:10195000C6016F2D4A2D212F0E94EC0AC601672D6A
:101960004A2D2E2D01E00E94550BFE18C6016F2D49
:101970004A2D2E2D02E00E94550BBE18C6016F2D78
:101980004B2D2E2D04E00E94550BC601672D4B2DCB
:101990002E2D08E00E94550B1F910F91FF90EF90A4
:1019A000DF90CF90BF90AF909F908F907F900895E1
:1019B0008F929F92AF92BF92CF92DF92EF92FF925F
:1019C0000F931F936C01162FA42E922EF02EBE2C77
:1019D0008E2C860E2EEFE29EE02C11242E2D290D4A
:1019E000682D0E94F60AAB0CFA94FE0C1150190DEA
:1019F0001B19C601612F4A2D2B2D01E0EF2C0E94EF
:101A0000040CC601682D4A2D2B2D02E00E94040C07
:101A10001F910F91FF90EF90DF90CF90BF90AF900C
:101A20009F908F9008952F923F924F925F926F9266
:101A30007F928F929F92AF92BF92CF92DF92EF925E
:101A4000FF920F931F93DF93CF9300D00F92CDB7E8
:101A5000DEB73C016983442E8901F90154900F5F80
:101A60001F4FF801D49001501040852D90E007964B
:101A700073E0959587957A95E1F7EE2460E8262E38
:101A8000312C882E992487FC9094D40E31C08E2D51
:101A90008770510102C0B594A7948A95E2F78E2D04
:101AA000859585958595282F332727FD30952E5FC1
:101AB0003F4F200F311F3B832A83F42CC980CE0C6B
:101AC00014C0EA81FB81849190E08A219B21892BBB
:101AD00029F0C3016C2D4F2D0E94FA092A813B8108
:101AE000280D391D3B832A83F394FD1451F7E394A9
:101AF000E51469F60F900F900F90CF91DF911F9131
:101B00000F91FF90EF90DF90CF90BF90AF909F909C
:101B10008F907F906F905F904F903F902F9008959F
:101B20002F923F924F925F926F927F928F929F92ED
:101B3000AF92BF92CF92DF92EF92FF920F931F93DB
:101B4000DF93CF93CDB7DEB727970FB6F894DEBFFC
:101B50000FBECDBF1C01662E4A8369019E2C002357
:101B600029F4EE2019F40E94130D81C0F60184902F
:101B70000894C11CD11CF60174900894C108D108C6
:101B8000882D90E0079623E0959587952A95E1F7B3
:101B900003700983A82CAA9400E0282F332727FD7F
:101BA00030953C832B83372D31503D835DC0802F92
:101BB000877090E8492E512C02C0559447948A951D
:101BC000E2F7802F859585958595E82FFF27E7FD1E
:101BD000F0953296EC0DFD1DFF83EE83BD80FF2452
:101BE0003EC0EE81FF81849190E084219521892B74
:101BF00061F1F981F13051F0F13028F0F23049F023
:101C0000F33061F409C0102FEF2C08C0EA2C1F2D0F
:101C100005C01A2DEB2C02C01B2DE02E992069F077
:101C200023E09222892D90FE03C0382D311B132F03
:101C300081FF03C0872D8E19E82E160D9A81E90EBB
:101C4000C101612F4E2D0E94FA09F394EE81FF81AC
:101C50002B813C81E20FF31FFF83EE83BA94F714CC
:101C600009F0BFCF0F5FAA94081509F0A0CF2796FF
:101C70000FB6F894DEBF0FBECDBFCF91DF911F919D
:101C80000F91FF90EF90DF90CF90BF90AF909F901B
:101C90008F907F906F905F904F903F902F9008951E
:101CA000DC01FB0184918F5F14968C93149731961D
:101CB00084918F5F15968C93159731965E96FC9361
:101CC000EE935D9708953F924F925F926F927F924D
:101CD0008F929F92AF92BF92CF92DF92EF92FF923C
:101CE0000F931F93CF93DF93EC01862EA42E422FE8
:101CF000102F3F8C23E526170CF4ABC03FE23A15BA
:101D00000CF4A7C0C02EDD248C8190E001979C01CB
:101D1000C29EC001C39E900DD29E900D1124262F0D
:101D2000332727FD3095820F931F181619060CF0E4
:101D300090C08D8190E09C01C29EC001C39E900D19
:101D4000D29E900D11242A2D332727FD3095820F26
:101D5000931F181619060CF07CC09924442E5524A4
:101D60006DC09C01215030404217530711F460E0D0
:101D70000EC0429EC001439E900D529E900D1124B4
:101D8000840F951FED8DFE8DE80FF91F64914C9D1A
:101D9000C0014D9D900D5C9D900D1124682C680E26
:101DA000BB24792C780C3FC0E62EFF2460FF19C0BD
:101DB000113039F44B2D4A0DCE01672D0E94FA09DE
:101DC0002EC02C9DC0012D9D900D3C9D900D112489
:101DD0004A2D480FCE01662D212F012F0E94F60AB1
:101DE0001EC098A18F8D9817D1F09F8F113039F4B4
:101DF0004B2D4A0DCE01672D0E94FA090FC02C9D74
:101E0000C0012D9D900D3C9D900D11244A2D480F31
:101E1000CE01662D212F012F0E94F60A3F8EF594E8
:101E2000E7946E2DB3942B2D332727FD30958D81AC
:101E300090E0281739070CF4B7CF9394492D552714
:101E400047FD50958C8190E0481759070CF489CFD5
:101E50003F8EDF91CF911F910F91FF90EF90DF9018
:101E6000CF90BF90AF909F908F907F906F905F903A
:101E70004F903F9008950F93CF93DF93EC01262F5F
:101E80006A3049F48D819885899F802D11249A8527
:101E9000980F9A8726C06D3029F169854A85088593
:101EA0000E94630E9C816885969F402D1124898530
:101EB000480F49878F818823A9F0552747FD509502
:101EC000699F9001112484E590E0821B930B841795
:101ED000950744F49D81699F902D11248A85890F6F
:101EE0008A87198681E090E0DF91CF910F91089564
:101EF0001F93CF93DF93EC01162FF8948E8560E04B
:101F00000E9450198F8518161CF460E00E94501929
:101F10001EBD0DB407FEFDCF8EB58F8518161CF4BF
:101F200061E00E9450197894DF91CF911F9108953C
:101F3000FF920F931F93CF93DF93EC01FF2400E0F8
:101F400010E06F2D6064CE010E94780FCE0160E832
:101F50000E94780F8E8561E00E9450198F851816B7
:101F60001CF460E00E945019F801E458FC4F90E026
:101F700080818EBD0DB407FEFDCF8EB59F5F31967B
:101F80009435B1F78F8518161CF461E00E94501942
:101F9000F3940C5A1F4F86E0F81699F6CE0160E4D0
:101FA0000E94780FDF91CF911F910F91FF900895BC
:101FB000CF93DF93DC0188EF91E0ECE7F3E0EF01F2
:101FC0009C01199221503040E1F719961C92199703
:101FD0001A961C92DF91CF910895EF920F93CF93B1
:101FE000DF93EC014D876C872E87E88A0F8781E0AD
:101FF00088878F8F18A28F83E8E3F4E084918F5F46
:102000008C83319684918F5F8D833196FE8FED8F17
:102010000E94970981E00E94780985E00E94860964
:102020008CE00E9481098D8561E00E9411198C85E8
:1020300061E00E9411198E8561E00E941119888962
:1020400018161CF461E00E9411198F8518161CF4F3
:1020500061E00E941119888918166CF460E00E94F2
:1020600050196AE070E080E090E00E94731A88895D
:1020700061E00E945019EC852E2F332727FD309503
:10208000F901E959F84FE491F0E0EE0FFF1FED5A26
:10209000F84F859194919C8B8B8B2558384FF90183
:1020A00084918A8FED852E2F332727FD3095F901F6
:1020B000E959F84FE491F0E0EE0FFF1FED5AF84FA9
:1020C000859194919A8B898B2558384FF901849189
:1020D000898FEF852E2F332727FD3095F901E95998
:1020E000F84FE491F0E0EE0FFF1FED5AF84F8591A5
:1020F00094919E8B8D8B2558384FF90184918B8F4D
:10210000EE852E2F332727FD3095F901E959F84F39
:10211000E491F0E0EE0FFF1FED5AF84F8591949196
:10212000988F8F8B2558384FF90184918C8FCE0171
:1021300061E20E94780FCE0164E10E94780F8B85E6
:1021400087FF02C08FE78B876B856068CE010E9496
:10215000780FCE0160E20E94780FCE016CE00E9401
:10216000780FCE010E94980FDF91CF910F91EF90E1
:102170000895FC01662371F4178A158A14A213A22C
:10218000108E1092780510927705109275051092B6
:10219000B400118208950F931F93CF93DF93EC0146
:1021A0008B01442371F460E00E94B9101E870D87F3
:1021B0001B8A1A8A81E0898389E08E8B198E1B8E97
:1021C0001D8EDF91CF911F910F910895CF93DF93D3
:1021D000EC01662339F58881882321F189818823E0
:1021E00009F5898590E0880F991FEF81F885E80F40
:1021F000F91F859194912FEF8F3F920711F4188268
:1022000011C09C8790E0880F991FEA85FB85E80F35
:10221000F91F65917491CE0140E00E94CB10898531
:102220008F5F8987DF91CF91089560E00E94E6106B
:10223000089560E00E94B91008950F93DC01002317
:1022400009F069C0623009F443C0633030F466239A
:1022500059F0613009F05FC00DC0633009F444C02B
:10226000643009F058C04CC04B3008F04AE0569634
:102270004C9351C0842F90E0880F991F1F962D9189
:102280003C915097280F391FF901859194919096B0
:102290009C938E935F97FC014591549114968C9179
:1022A0001497849F602D112491966C939197252FFC
:1022B0003327862F90E02817390708F4652F1496E6
:1022C0008C911497689F802D112492968C9323C033
:1022D00014968C911497489F802D112459968C93B5
:1022E00059975A962C9317C014968C911497489F1F
:1022F000802D11245B968C935B975C962C930BC07E
:1023000014968C911497489F802D11245D968C9380
:102310005D975E962C930F9108950F93CF93DF9363
:10232000EC01662309F07BC08981882309F477C01A
:102330008D89882309F073C0EA89FB89EE0FFF1F9E
:102340004D855E85E40FF51F2591349121153105EA
:1023500009F049C08989813031F41B8A1A8AFA014F
:102360002591349140C019828881882379F0CE016B
:1023700060E00E94E6108A899B89880F991FED858D
:10238000FE85E80FF91F259134912DC01F8A1D8A03
:102390001CA21BA2188E109278051092770510923D
:1023A00075051092B4003BC006E0369527950A9556
:1023B000E1F76F70422F4F71B5E036952795BA95CA
:1023C000E1F72051CE0100E00E941D118A899B890E
:1023D00001969B8B8A8B880F991FED85FE85E80FF0
:1023E000F91F25913491B901769567957695679592
:1023F00020FDDACF862F8F738C8B8C81839F802D6D
:1024000011248D8B1DA21CA21BA281E08F8B8093B7
:102410007505188E8A899B8901969B8B8A8BDF9123
:10242000CF910F91089560E00E948D110895CF9390
:10243000DF93EC01662309F0E9C08F89882309F452
:10244000E5C08D89882371F41F8A1D8A1CA21BA2F6
:10245000188E1092780510927705109275051092DB
:10246000B400D4C081508D8B8DA1882309F044C065
:102470008BA19CA10196880F991FEF8DF8A1E80F01
:10248000F91F85919491282F27702EA3AC0173E03A
:10249000569547957A95E1F79A0136952795892FB4
:1024A0009927869586958FA32F738C81289F202D41
:1024B00011242DA34170409379058BA19CA1019615
:1024C0009CA38BA329A130E082179307A8F08AA1CF
:1024D000882329F0281B31093CA32BA30DC01F8A98
:1024E0001D8A1CA21BA2188E1092780510927705E7
:1024F000109275051092B4008DA181508DA3988D16
:102500009F5F988F2FA18C89280F8C85280F2A8395
:102510006B8D662369F0892F992787FD909570E070
:102520000E94BA1E8C8D869F802D1124820F8A8373
:102530008A8190E0CB966BE370E00E94BA1E8A839A
:102540002E892B83698D662379F0888D772767FD27
:102550007095992787FD90950E94BA1E8A8D869F57
:10256000802D1124820F8B836D8D662399F0888DC9
:10257000992787FD909570E00E94BA1ECB0162E01A
:1025800070E00E94BA1E9E8D899F802D11249B8130
:10259000890F8B838B818A300CF089E087FD80E086
:1025A0008B838C898F3309F41B82F894EA81F0E0E5
:1025B000E053FA4FE491E09376052D8130E08B8172
:1025C000992787FD9095A901489F9001499F300D5B
:1025D000589F300D112488A590E0A901489F9001D3
:1025E000499F300D589F300D11248EA1992787FDEA
:1025F0009095AC01249FC001259F900D349F900DB4
:10260000112480937705809378057894DF91CF919A
:10261000089560E00E94171208956091770566237F
:1026200081F1809174058F5F809374059091760598
:10263000891738F130E080917505882309F431E07D
:102640003093750510927405809179058823A9F05F
:102650008091150123E4829FC0011124895B80933E
:10266000150190E070E00E94A61E8093780505C0D9
:10267000809178058093B40008953323C9F780E0F2
:10268000F9CF08951F920F920FB60F9211242F9336
:102690003F934F935F936F937F938F939F93AF93EA
:1026A000BF93EF93FF930E940D13FF91EF91BF91A2
:1026B000AF919F918F917F916F915F914F913F91DA
:1026C0002F910F900FBE0F901F90189568EC75E03A
:1026D00040E00E94CB10089560EC75E040E00E945D
:1026E000CB1008956AEB75E040E00E94CB1008958E
:1026F000FC01862F668170E06F5F7F4F992787FD11
:1027000090950E94BA1E858308950F93FC0181E085
:10271000848384E080A78BE096E0908B8787CF014D
:1027200061E040E020E000E00E941D1183E061E0F4
:1027300070E00E94291BE1EBF0E08081887F8160DE
:102740008083F89410928000E1E8F0E0108210920B
:1027500085001092840088E191E090938900809335
:102760008800808188608083808181608083EFE63B
:10277000F0E080818260808378940F910895FC015D
:10278000ED57FF4F61937193445F40830895CF935A
:10279000DF93DC01E0E8F7E785919491ED01C75AFA
:1027A000DF4FAD0141595F4F8150904C09F04EC051
:1027B000E6E9F7E7E491E883E7E9F7E7E4911496BF
:1027C000EC931497E8E9F7E7E4911596EC931597E5
:1027D000E9E9F7E78591949117969C938E93169764
:1027E000EBE9F7E78591949119969C938E9318974E
:1027F000EDE9F7E7E4919B96EC939B97EEE9F7E719
:10280000E4919A96EC939A97EFE9F7E7E491EA015D
:10281000E883E0EAF7E7859194915D969C938E9327
:102820005C97E2EAF7E7859194915F969C938E938B
:102830005E97E4EAF7E78591949191969C938E9345
:102840009097E6EAF7E78591949132C08CE388830C
:1028500014961C9214972FEF15962C93159780E2DF
:1028600093E017969C938E93169784ED93E01996B8
:102870009C938E93189781E09B968C939B979A9646
:102880008C939A97FA0120838CEA9DE05D969C9345
:102890008E935C978EED9DE05F969C938E935E97F2
:1028A00084E79EE091969C938E9390978CE39FE0B3
:1028B00093969C938E939297DF91CF910895EF9288
:1028C000FF920F931F93CF93DF937C018C01025BE8
:1028D0001F4FC8010E94D80FC8016CE376E00E9428
:1028E000C51BC8010E94980F83E00E94860988E0FA
:1028F00091E0EEEFFFE3099584E590E0E80EF91E24
:10290000F7011082C80167E176E00E94101CC8013F
:102910000E94980FE701CA54D040CE010E94D2090C
:10292000CE0164E00E94BE09882339F462E370E0BE
:1029300080E090E00E94731AF0CFDF91CF911F9159
:102940000F91FF90EF9008950F931F93CF93DF9314
:10295000EC018C01025B1F4FC80161E040E00E9466
:10296000610AFE01E95AFF4FCE5ADF4F85E5988193
:10297000891B808326961882C855D040698D6130A6
:1029800009F43EC0613028F0888D653008F051C0F0
:102990004BC0CE0185960E941911CE0160E00E94C5
:1029A0005E18C8010E94D80FCA5ADF4F81E08883A1
:1029B000C655D040C80168E776E00E94C51B6A8D05
:1029C0007B8DC8014AE050E00E94B31CC80164E658
:1029D00076E00E94C51BC8010E94980F83B7817FD3
:1029E000846083BF83B7816083BF83B7816083BF07
:1029F000889583B78E7F83BF83B78E7F83BF1FC0C9
:102A0000C059DF4F88819981AA81BB818F709070F6
:102A1000A070B0700897A105B10518F4C80167E06F
:102A20000CC0C80168E709C0882349F06B5FC80182
:102A300004C0882321F0C8016FE20E94E81BDF91E7
:102A4000CF911F910F910895AF92BF92CF92DF92D5
:102A5000EF92FF920F931F93CF93DF93EC01CB572D
:102A6000DF4F8881C558D040882309F44AC08C3094
:102A700010F010E002C01CE0181BCA5ADF4F81E0C2
:102A80008883C655D0406EE4C62ED12CCC0EDD1EF8
:102A9000C60160E00E945D0A53E5A52EB12CAC0E84
:102AA000BD1EF50100814DE2F42E4F2D401B410F5C
:102AB0000D5FC60160E024E533E0E32E0E94D80CF0
:102AC000C60161E00E945D0AF5010081F01AF10E75
:102AD0000D5FC60160E04F2D24E50E947A0CC95AB3
:102AE000DF4F84E08993F5018081181B115D188305
:102AF000AB9669917991C6010E94C51B888181506E
:102B00008883DF91CF911F910F91FF90EF90DF901D
:102B1000CF90BF90AF9008954F925F926F927F9247
:102B20008F929F92AF92BF92CF92DF92EF92FF92DD
:102B30000F931F932C01FC01628C738C6094709432
:102B4000882499240E944D1A5B016C010E944D1A41
:102B50007B018C01F201418052800E944D1A460E89
:102B6000571EA094B094C094D094E094F094009533
:102B70001095C601B501A80197010E94871EA40106
:102B800093010E94871E460E571EC2010E94621DBD
:102B90001F910F91FF90EF90DF90CF90BF90AF907B
:102BA0009F908F907F906F905F904F900895AF921D
:102BB000BF92CF92DF92EF92FF920F931F93CF932A
:102BC000DF93EC01EFE7AE2EB12CA80EB91EF50194
:102BD000E080F180028113810E943F1AE61AF70A11
:102BE000080B190B7EE7C72ED12CCC0EDD1EF6018B
:102BF000808190E0A0E0B0E08E159F05A007B107AE
:102C000008F081C08E0106581F4FF8018081918124
:102C1000A281B3810097A105B10509F474C00E9497
:102C20003F1AF6012081620F711D811D911DF50172
:102C30006083718382839383FE01E059FF4F80811B
:102C40009181A281B3810196A11DB11D80839183E1
:102C5000A283B383F80110821182128213820E9430
:102C60004D1ACA58DF4F688379838A839B83C6577E
:102C7000D040CE010E946318CE010A960E94D2096C
:102C8000CE0148960E94D51881E032C08E010B5DBE
:102C90001F4FC8010E941511C8010E941312C801DC
:102CA0000E940913CE010E942415CE010E94A41493
:102CB0008E01025B1F4FC8010E94980FCC5ADF4F54
:102CC0008881C455D040882319F4C8010E94D80FC8
:102CD0000E944D1AC658DF4F688379838A839B838D
:102CE000249728813981621B730B7A936A9380E061
:102CF000DF91CF911F910F91FF90EF90DF90CF90D8
:102D0000BF90AF900895C658DF4F88819981AA81FE
:102D1000BB81CA57D0400097A105B10541F7B6CF96
:102D20002F923F924F925F926F927F928F929F92DB
:102D3000AF92BF92CF92DF92EF92FF920F931F93C9
:102D4000DF93CF93CDB7DEB72B970FB6F894DEBFE6
:102D50000FBECDBF9B878A877A8369835C834B8351
:102D60008C0101591F4FF8018081882309F422C189
:102D70008A859B858A5A9F4F9B878A8781E0EA854F
:102D8000FB85808312921292E455F040FB87EA871C
:102D9000108E9EE4E92EF12CEE0EFF1EC70161E0BD
:102DA0000E945D0A8AE0282E312C8A859B85280E98
:102DB000391EB5E26B2E712C680E791EE981FA81FD
:102DC000F491FD83A7E58A2E912C880E991EF8E5D3
:102DD000CF2ED12CC80ED91EE2E54E2E512C480E16
:102DE000591E8D5A9F4F9F838E8370E7A72EB12C5B
:102DF0008A859B85A80EB91E198708878A859B85B9
:102E00000E94D7158823D1F39D81992311F410E0F6
:102E100003C0EE81FF811081C70160E040E025EB37
:102E200036E00E94130D8B819C81892B41F0145F49
:102E3000C70160E0412F2B813C810E94130DF401FA
:102E400010828CE0F6018083C70169817A810E943B
:102E5000C51BF201208130E0C901880F991F820F44
:102E6000931F909581959F4F8D5AF4018083EE8139
:102E7000FF81208130E0C901880F991F820F931FC5
:102E8000909581959F4F835DF6018083F501808148
:102E900084FF04C0C70165E377E003C0C70161E3B5
:102EA00077E00E94101CF201208130E0C901880FF8
:102EB000991F820F931F909581959F4F8D5AF40112
:102EC0008083F60180818F5F8083EA85FB8582A500
:102ED000882321F0C7016DE277E003C0C70169E2F2
:102EE00077E00E94101CF201808190E09C01220F8B
:102EF000331F280F391F309521953F4F2D5AF4016C
:102F00002083F60180818F5F8083C70165E277E0CF
:102F10000E94101CC10165E00E94BE09882351F087
:102F2000EA85FB8562A56F5FC3010E947813C30128
:102F30000E947213C10164E00E94BE09882399F4C3
:102F4000E885F9856081262F30E040E050E0F5010A
:102F500080819181A281B38182179307A407B5076D
:102F600008F16F3FF9F08A859B8581599F4F9B87B8
:102F70008A878FEFEA85FB858083EF56F040FB87D9
:102F8000EA87C30160E00E94B910C3010E94661382
:102F900081E0EA85FB85808F0DC08A859B850E9434
:102FA0005F142CCFC10166E00E94BE09882309F49A
:102FB00025CFF3CF2B960FB6F894DEBF0FBECDBF53
:102FC000CF91DF911F910F91FF90EF90DF90CF9005
:102FD000BF90AF909F908F907F906F905F904F9039
:102FE0003F902F900895AF92BF92CF92DF92EF92D1
:102FF0000F93CF93DF936C018EE790E0C80ED91E3C
:1030000082E3F601808381E090E0A0E0B0E0B2933B
:10301000A293929382936F0185EF9FEFC80ED91E02
:103020008FEFF601808381E99FEFC80ED91EC6019C
:103030000E94C713C6010E945A18C6016FEF0E9472
:103040005E184AE0A42EB12CAC0CBD1CC5010E9438
:10305000AE09C5010E94D209C60148960E94CB184C
:10306000C601825B9F4F6DE04BE020E10FE03EE048
:10307000E32E0E94ED0FE601A596CE010E94851376
:10308000C50165E00E94BE09882329F0CE0160E0F9
:103090000E94781306C0CE016BE377E040E00E9407
:1030A000CB10DF91CF910F91EF90DF90CF90BF9039
:1030B000AF900895FC0181E08083089585E070E081
:1030C0000E94291B08956F927F928F929F92AF92D8
:1030D000BF92CF92DF92EF92FF920F931F93CF9305
:1030E000DF93EC0189819A818C0124E0000F111F8C
:1030F0002A95E1F7081B190B85E10E94071BBC010B
:10310000600F711F84E0769567958A95E1F77A8361
:1031100069838881882381F12E813F81621773073B
:1031200010F4B90106C0888599858617970708F4B9
:10313000BC0100D000D080E090E040E050E0E884A6
:10314000F98400E010E0AD80BB24CC24DD246C8049
:10315000772488249924EDB7FEB761827282838236
:1031600094820E94D91C6B830F900F900F900F9048
:1031700085E070E00E94291BDF91CF911F910F9194
:10318000FF90EF90DF90CF90BF90AF909F908F9087
:103190007F906F900895FC018CE39FE0938382837E
:1031A00084E0818381E084870895CF93DF93EC01ED
:1031B0008C8590E08F719070892B69F584E10E9475
:1031C000071BAA2797FDA095BA2FBC01CD010E942D
:1031D000981D26EE3FE34EEC50E40E94241E0E9410
:1031E0006A1D9B01AC017B836A836115710589F0BF
:1031F00084E08983B901FE0120E08481958168170C
:10320000790710F429830AC02F5F32962430A9F77A
:1032100002C08FEF89838C858F5F8C87DF91CF9180
:103220000895CF93DF93482F50E0CA018558984FF7
:10323000FC0134914959584FFA018491882369F16E
:1032400090E0880F991FFC01E75BF84FA591B491BE
:10325000FC01ED5AF84FC591D491662351F42FB774
:10326000F8948C91932F909589238C93888189234E
:103270000BC0623061F42FB7F8948C91932F909526
:1032800089238C938881832B88832FBF06C09FB7A7
:10329000F8948C91832B8C939FBFDF91CF910895ED
:1032A000482F50E0CA018157984FFC012491CA0170
:1032B0008558984FFC0194914959584FFA0134911F
:1032C000332309F440C0222351F1233071F024301C
:1032D00028F42130A1F0223011F514C02630B1F0CD
:1032E0002730C1F02430D9F404C0809180008F775A
:1032F00003C0809180008F7D8093800010C084B5D2
:103300008F7702C084B58F7D84BD09C08091B000E5
:103310008F7703C08091B0008F7D8093B000E32F42
:10332000F0E0EE0FFF1FED5AF84FA591B4912FB7C3
:10333000F894662321F48C919095892302C08C9196
:10334000892B8C932FBF0895682F70E0CB01815794
:10335000984FFC012491CB018558984FFC01449172
:103360006959784FFB019491992319F420E030E0DA
:103370003CC0222351F1233071F0243028F4213055
:10338000A1F0223011F514C02630B1F02730C1F081
:103390002430D9F404C0809180008F7703C08091DD
:1033A00080008F7D8093800010C084B58F7702C02D
:1033B00084B58F7D84BD09C08091B0008F7703C034
:1033C0008091B0008F7D8093B000892F90E0880FAE
:1033D000991F835A984FFC01A591B4918C9120E0DC
:1033E00030E0842311F021E030E0C90108951F92FC
:1033F0000F920FB60F9211242F933F938F939F93A9
:10340000AF93BF9380917E0590917F05A091800539
:10341000B0918105309182050196A11DB11D232F28
:103420002D5F2D3720F02D570196A11DB11D209342
:10343000820580937E0590937F05A0938005B093CD
:10344000810580917A0590917B05A0917C05B091D2
:103450007D050196A11DB11D80937A0590937B0592
:10346000A0937C05B0937D05BF91AF919F918F9103
:103470003F912F910F900FBE0F901F9018958FB70F
:10348000F89420917E0530917F0540918005509100
:1034900081058FBFB901CA0108959FB7F8942091A3
:1034A0007A0530917B0540917C0550917D0586B56C
:1034B000A89B06C08F3F21F02F5F3F4F4F4F5F4FBC
:1034C0009FBF542F432F322F2227280F311D411D1C
:1034D000511D82E0220F331F441F551F8A95D1F7DB
:1034E000B901CA0108959B01AC017FB7F89480919E
:1034F0007A0590917B05A0917C05B0917D0566B51C
:10350000A89B05C06F3F19F00196A11DB11D7FBF9B
:10351000BA2FA92F982F8827860F911DA11DB11DA5
:1035200062E0880F991FAA1FBB1F6A95D1F7BC01E3
:103530002DC0FFB7F89480917A0590917B05A091FA
:103540007C05B0917D05E6B5A89B05C0EF3F19F05D
:103550000196A11DB11DFFBFBA2FA92F982F882753
:103560008E0F911DA11DB11DE2E0880F991FAA1FAA
:10357000BB1FEA95D1F7861B970B885E9340C8F274
:10358000215030404040504068517C4F211531055A
:103590004105510571F60895789484B5826084BD23
:1035A00084B5816084BD85B5826085BD85B5816047
:1035B00085BDEEE6F0E0808181608083E1E8F0E0A7
:1035C0001082808182608083808181608083E0E8D6
:1035D000F0E0808181608083E1EBF0E080818460B5
:1035E0008083E0EBF0E0808181608083EAE7F0E0B7
:1035F000808184608083808182608083808181601B
:1036000080838081806880831092C1000895982F04
:103610008E3008F09E509770809116018295880F29
:10362000880F807C892B80937C0080917A00806455
:1036300080937A0080917A0086FDFCCF20917800FB
:1036400040917900942F80E030E0282B392BC9017C
:1036500008951F93CF93DF93182FEB0161E00E9431
:103660001119209709F44AC0CF3FD10509F449C088
:10367000E12FF0E0E157F84F84918330C1F08430BE
:1036800028F4813051F08230B1F50CC0863019F148
:10369000873049F1843079F514C084B5806884BDE1
:1036A000C7BD33C084B5806284BDC8BD2EC08091C3
:1036B0008000806880938000D0938900C093880048
:1036C00024C080918000806280938000D0938B0022
:1036D000C0938A001AC08091B00080688093B000C7
:1036E000C093B30012C08091B00080628093B0009C
:1036F000C093B4000AC0C038D1051CF4812F60E02B
:1037000002C0812F61E00E945019DF91CF911F917B
:1037100008950895CF93DF930E94CC1A0E94891BCD
:103720000E94C105C0E0D0E00E9411092097E1F39A
:103730000E940000F9CFCF92DF92EF92FF920F9399
:103740001F93CF93DF937C016B018A01C0E0D0E02F
:103750000FC0D6016D916D01D701ED91FC910190E3
:10376000F081E02DC7010995C80FD91F0150104005
:103770000115110571F7CE01DF91CF911F910F91C6
:10378000FF90EF90DF90CF900895EF92FF920F930C
:103790001F93CF93DF937C018B01C0E0D0E0F80151
:1037A0000F5F1F4F6491662359F0D701ED91FC9193
:1037B0000190F081E02DC7010995C80FD91FEFCF07
:1037C000CE01DF91CF911F910F91FF90EF9008955F
:1037D000DC01ED91FC910190F081E02D09950895B7
:1037E000EF92FF920F931F938C01DC01ED91FC91FE
:1037F0000190F081E02D6DE009957C01D801ED91FB
:10380000FC910190F081E02DC8016AE009959C01CE
:103810002E0D3F1DC9011F910F91FF90EF9008954C
:10382000EF92FF920F931F937C010E94C51B8C01A6
:10383000C7010E94F01B9C01200F311FC9011F917D
:103840000F91FF90EF900895CF93DF93EC016115F6
:10385000710519F420E030E00FC0DB010D9000206D
:10386000E9F71197A61BB70BE881F9810280F38174
:10387000E02DAD0109959C01C901DF91CF9108951B
:103880004F925F927F928F929F92AF92BF92CF9210
:10389000DF92EF92FF920F931F93DF93CF93CDB7F9
:1038A000DEB7A1970FB6F894DEBF0FBECDBF2C01D7
:1038B000742ECB01223008F42AE019A231E2C32E83
:1038C000D12CCC0EDD1E822E9924AA24BB24672D78
:1038D000752FA50194010E94CD1E79018A01C801AE
:1038E000B701A50194010E94871E472D461B08942D
:1038F000C108D1084A3014F4405D01C0495CF601AA
:103900004083E114F1040105110521F07E2C5F2DA7
:10391000C801DDCFC201B6010E94241CA1960FB6DA
:10392000F894DEBF0FBECDBFCF91DF911F910F91F5
:10393000FF90EF90DF90CF90BF90AF909F908F90CF
:103940007F905F904F900895DC012115310541F47F
:10395000ED91FC910190F081E02D642F099508957F
:103960000E94401C0895EF92FF920F931F939A01BB
:103970007B0100E010E0B801A7010E94A41C1F9188
:103980000F91FF90EF900895EF92FF920F931F9386
:103990009A01E62EFF2400E010E0B801A7010E9482
:1039A000A41C1F910F91FF90EF9008950E94241C7A
:1039B00008952F923F924F925F926F927F928F92D3
:1039C0009F92AF92BF92CF92DF92EF92FF920F93AE
:1039D0001F93DF93CF93CDB7DEB73B014C011901A5
:1039E0002A016D897E898F89988D6A197B098C09D6
:1039F0009D09621A730A840A950AA40193010E9420
:103A0000871EE218F30804091509A80197010E940E
:103A1000EF1E2A0D3B1D4C1D5D1DB901CA01CF9142
:103A2000DF911F910F91FF90EF90DF90CF90BF90AB
:103A3000AF909F908F907F906F905F904F903F904E
:103A40002F900895EF92FF920F931F937B018C01AB
:103A5000611571058105910529F420E030E040E011
:103A600050E00BC00E945004A80197010E94EF1E75
:103A7000AC01CB01DA019C01AD01B901CA011F9172
:103A80000F91FF90EF900895EF92FF920F931F9385
:103A90007B018C01621773078407950764F4261B6A
:103AA000370B480B590BCA01B9010E94221DE60EC3
:103AB000F71E081F191FB701C8011F910F91FF9032
:103AC000EF900895009729F0BC0180E090E00E94FB
:103AD0005504089598D088F09F5790F0B92F9927F2
:103AE000B751A0F0D1F0660F771F881F991F1AF009
:103AF000BA95C9F712C0B13081F09FD0B1E00895F6
:103B00009CC0672F782F8827B85F39F0B93FCCF376
:103B1000869577956795B395D9F73EF490958095FE
:103B2000709561957F4F8F4F9F4F0895E89409C01E
:103B300097FB3EF490958095709561957F4F8F4FE0
:103B40009F4F9923A9F0F92F96E9BB279395F695F6
:103B5000879577956795B795F111F8CFFAF4BB0F74
:103B600011F460FF1BC06F5F7F4F8F4F9F4F16C0D8
:103B7000882311F096E911C0772321F09EE8872F62
:103B8000762F05C0662371F096E8862F70E060E01E
:103B90002AF09A95660F771F881FDAF7880F969597
:103BA000879597F9089597F99F6780E870E060E03E
:103BB00008959FEF80EC089500240A9416161706C6
:103BC00018060906089500240A941216130614060E
:103BD00005060895092E0394000C11F4882352F071
:103BE000BB0F40F4BF2B11F460FF04C06F5F7F4F29
:103BF0008F4F9F4F089557FD9058440F551F59F010
:103C00005F3F71F04795880F97FB991F61F09F3FC9
:103C100079F087950895121613061406551FF2CFF2
:103C20004695F1DF08C0161617061806991FF1CF42
:103C300086957105610508940895E894BB27662769
:103C40007727CB0197F908950BD0C4CFB5DF28F0C3
:103C5000BADF18F0952309F0A6CFABCF1124EECF31
:103C6000CADFA0F3959FD1F3950F50E0551F629FD7
:103C7000F001729FBB27F00DB11D639FAA27F00DC5
:103C8000B11DAA1F649F6627B00DA11D661F829FEC
:103C90002227B00DA11D621F739FB00DA11D621FD1
:103CA000839FA00D611D221F749F3327A00D611DEE
:103CB000231F849F600D211D822F762F6A2F1124D0
:103CC0009F5750408AF0E1F088234AF0EE0FFF1F23
:103CD000BB1F661F771F881F91505040A9F79E3F5A
:103CE000510570F060CFAACF5F3FECF3983EDCF354
:103CF000869577956795B795F795E7959F5FC1F797
:103D0000FE2B880F911D9695879597F90895629FD0
:103D1000D001739FF001829FE00DF11D649FE00DC3
:103D2000F11D929FF00D839FF00D749FF00D659F24
:103D3000F00D9927729FB00DE11DF91F639FB00D23
:103D4000E11DF91FBD01CF0111240895AA1BBB1B62
:103D500051E107C0AA1FBB1FA617B70710F0A61B8B
:103D6000B70B881F991F5A95A9F780959095BC01AC
:103D7000CD01089597FB092E07260AD077FD04D0C0
:103D8000E5DF06D000201AF4709561957F4F089505
:103D9000F6F7909581959F4F0895A1E21A2EAA1BE0
:103DA000BB1BFD010DC0AA1FBB1FEE1FFF1FA217EB
:103DB000B307E407F50720F0A21BB30BE40BF50BE8
:103DC000661F771F881F991F1A9469F76095709571
:103DD000809590959B01AC01BD01CF01089597FBA3
:103DE000092E05260ED057FD04D0D7DF0AD0001CBF
:103DF00038F450954095309521953F4F4F4F5F4F88
:103E00000895F6F790958095709561957F4F8F4F47
:103E10009F4F0895EE0FFF1F0590F491E02D099438
:103E20002F923F924F925F926F927F928F929F92CA
:103E3000AF92BF92CF92DF92EF92FF920F931F93B8
:103E4000CF93DF93CDB7DEB7CA1BDB0B0FB6F89469
:103E5000DEBF0FBECDBF09942A88398848885F84A9
:103E60006E847D848C849B84AA84B984C884DF801A
:103E7000EE80FD800C811B81AA81B981CE0FD11DFE
:103E80000FB6F894DEBF0FBECDBFED010895F894D4
:023E9000FFCF62
:103E92000A0A0A0A0A002F004C4F41444552000107
:103EA2000000000305010120313233343536373842
:0A3EB20039000000003B0F9B1B00CD
:00000001FF
